:100000000C9406050C9447080C9420080C942E05BB
:100010000C942E050C942E050C942E050C942E0594
:100020000C942E050C942E050C942E050C942E0584
:100030000C942E050C942E050C942E050C942E0574
:100040000C94D6070C942E050C94F9060C94D30648
:100050000C942E050C942E050C942E050C942E0554
:100060000C94570A0C942E05084AD73B3BCE016EE0
:1000700084BCBFFDC12F3D6C74319ABD56833DDAFF
:100080003D00C77F11BED9E4BB4C3E916BAAAABE0E
:10009000000000803F0001B202FFFF01900409232D
:1000A000A135016A0206000160080000000000009E
:1000B00000000060044000000001620200000060D7
:1000C0000400400000037B034CCD6C03AB033656A9
:1000D0007600680402CB47A202180400058BC10118
:1000E0000C0400000000037F060CC92C97979703AF
:1000F0008903264666006C022000024004000000CE
:100100000002440400000000024804000000000255
:100110004C040000000002500400000000025404DF
:100120000000000002580400000000025C0400000F
:10013000000002BC040000000001EC0400004000CC
:10014000037F060CC92C9797970402030D355D04B5
:100150000904872D353D00A301000000000107863A
:1001600001FE074105F120283038077E013007469F
:10017000019A074704F1283038076C04F128303819
:100180000216020001FB00003E000B0036000100D9
:10019000020003000000650054FFEF0000FA800039
:1001A0000B128200010002000000000000000000AD
:1001B000000000000000280000FFFF4581FFFFFA5B
:1001C0007200000000000003E80000000100017F51
:1001D000FFFFFE8001001B00000000000000000087
:1001E0000000000000003E03304000000002CAE3AF
:1001F000093E8000002000000000000000400000D8
:10020000006000000041FF000000000B2A00001603
:100210005500002182FD872650FD800000001F0050
:100220000000058000000000000001000000020046
:100230000000030000400000000000046F000265A1
:100240003200005EC040000000000000000000001E
:100250000000000000FB8C6F5DFD5D08D9007C7321
:100260003B006C12CC3200139D3200D0D632000815
:1002700000400001F4FFE68079020000000000D099
:10028000D600002710FB0000004000000000000026
:10029000000000000000000001000000000000015C
:1002A00000010000000000FA36FFBC308E0005FBA4
:1002B000F0FFD95BC8FFD09ABE000010A9FFF41E62
:1002C000B200CEBBF70000000100000004000200F5
:1002D000020200000CFFC280000001800000CF80FD
:1002E00000400000000000000100000000000006C7
:1002F00000000000140000000000000000000000EA
:1003000000000000000000000000000000000000ED
:1003100000000000000000000000000000000000DD
:10032000000000000000000000033F68B679352897
:10033000BCC67ED16C80000000400000000000B20E
:100340006A00000000000000000000000000003F04
:10035000F00000003000000000000000000000007D
:10036000000000000000000000000000000000008D
:1003700000000000000000254D002F706D000005FA
:10038000AE000C02D00000000000650054FFEF003A
:100390000000000000000001000044000000000C0C
:1003A0000000000100000000000065000000540093
:1003B00000FFEF000000000000000000000000004F
:1003C00000000000004000000000000000000000ED
:1003D00000000000004000000000000000000000DD
:1003E000000000000000000001000000020000000A
:1003F00000000000000000000000000000000000FD
:1004000000000000000000000000000000000000EC
:100410000000000000001B000000000000000000C1
:1004200000000000000000000000000000000000CC
:1004300000000000000000000000000000000000BC
:100440000040000000001B00000000000000000051
:10045000000000000000000000000000000000009C
:10046000000000000000000000000000000000008C
:10047000000000000000000000000000000000007C
:100480000000000000D8DCBAA2F1DEB2B8B4A88146
:1004900091F74A907F916AF3F9DBA8F9B0BAA0808E
:1004A000F2CE81F3C2F1C1F2C3F3CCA2B280F1C6A5
:1004B000D880BAA7DFDFDFF2A7C3CBC5B6F087A22B
:1004C000942448703C95406834589B78A2F18392FC
:1004D0002D557DD8B1B4B8A1D09180F270F370F2EF
:1004E0007C80A8F101B09887D943D886C988BAA181
:1004F000F20EB89780F1A9DFDFDFAADFDFDFF2AA13
:10050000C5CDC7A90CC92C97979797F1A9892646FD
:1005100066B0B4BA80ACDEF2CAF1B28C02A9B69869
:1005200000890E161EB8A9B4992C547CB08AA896DE
:10053000365676F1B9AFB4B083C0B8A89711B18F71
:1005400098B9AFF0240844106418F1A329557DAF81
:1005500083B593AFF0002850F1A3869F61A6DADE41
:10056000DFD9FAA38696DB31A6D9F8DFBAA68FC207
:10057000C5C7B28CC1B8A2DFDFDFA3DFDFDFD8D809
:10058000F1B8A8B286B4980D355DB8AA98B0872D99
:10059000353DB2B6BAAF8C96198F9FA70E161EB412
:1005A0009AB8AA872C547CB9A3DEDFDFA3B180F20E
:1005B000C4CDC9F1B8A9B499830D355D89B9A32D0E
:1005C000557DB593A30E161EA92C547CB8B4B0F17A
:1005D0009783A81184A50998A383F0DA240844100E
:1005E0006418D8F1A529557DA58595021A2E3A568D
:1005F0005A4048F9F3A3D9F8F098832408441064CA
:10060000189782A8F111F098A2240844106418DA0F
:10061000F3DED883A59401D9A302F1A2C3C5C7D83C
:10062000F18492A24DDA2AD84869D92AD86855DAD5
:1006300032D85071D932D8705DDA3AD85879D93A6F
:10064000D87893A34DDA2AD84869D92AD86855DAD8
:1006500032D85071D932D8705DDA3AD85879D93A4F
:10066000D878A88A9AF02850789EF38818F19F1DB0
:1006700098A8D908D8C89F129EF315A8DA1210D8E6
:10068000F1AFC8978734B5B994A421F3D922D8F231
:100690002DF3D92AD8F235F3D932D881A46060611C
:1006A000D961D86C6869D969D8747071D971D8B1B9
:1006B000A384193D5DA3831A3E5E9310308110110F
:1006C000B8B0AF8F94F2DA3ED8B49AA88729DAF896
:1006D000D8879A35DAF8D8879A3DDAF8D8B1B9A42C
:1006E0009885022E56A581000C14A397B08AF12D8F
:1006F000D928D84DD948D86DD968D8B1840DDA0E2B
:10070000D8A32983DA2C0ED8A3844983DA2C4C0E83
:10071000D8B8B0A88A9AF520AADADFD8A840AAD01B
:10072000DADED8A860AADAD0DFD8F19786A8319BA4
:10073000069907AB9728889BF00C201440B8B0B4FA
:10074000A88C9CF0042851791D301438B282ABD0AB
:10075000982C505078789BF11AB0F08A9CA82951B7
:10076000798B2951798A2470598B2058718A446970
:10077000388B3940688A6448318B304960A58820BD
:100780000971584468113964493019F1AC002C548E
:100790007CF08CA804285078F1889726A85998AC4A
:1007A0008C02264666F0899CA82951792470594408
:1007B0006938644831A98809205970AB11384069FB
:1007C000A8193148608CA83C415C207C00F18798D6
:1007D0001986A86E767EA999882D557D9EB9A38A23
:1007E000228A6E8A568A5E9FB183062646660E2E40
:1007F0004E6E9DB8AD002C547CF2B18CB499B9A367
:100800002D557D8191AC38AD3AB58391AC2DD92869
:10081000D84DD948D86DD968D88C9DAE29D904AEA9
:10082000D851D904AED879D904D881F39DAD008DC3
:10083000AE1981ADD901D8F2AEDA26D88E912983CE
:10084000A7D9ADADADADF32AD8D8F1B0AC89913E02
:100850005E76F3AC2E2EF1B18C5A9CAC2C28282855
:100860009CAC3018A8988128343C9724A728343CA5
:100870009C24F2B089AC912C4C6C8A9B2DD9D8D891
:1008800051D9D8D879D9D8D8F19E88A331DAD8D817
:10089000912DD928D84DD948D86DD968D8B183932E
:1008A000353D8025DAD8D88569DAD8D8B49381A3C4
:1008B00028343CF3AB8BF8A391B609B4D9ABDEFA7C
:1008C000B0879CB9A3DDF1A3A3A3A395F1A3A3A330
:1008D0009DF1A3A3A3A3F2A3B49080F2A3A3A3A327
:1008E000A3A3A3A3A3A3B2A3A3A3A3A3A3B087B5C6
:1008F00099F1A3A3A398F1A3A3A3A397A3A3A3A34D
:10090000F39BA3A3DCB9A7F1262626D8D8FF29009C
:10091000444D5020496E697469616C697A617469EB
:100920006F6E206661696C65642028636F64652062
:1009300000444D50207265616479212057616974CB
:10094000696E6720666F7220666972737420696EC3
:10095000746572727570742E2E2E00456E61626C15
:10096000696E6720696E7465727275707420646553
:1009700074656374696F6E202841726475696E6F67
:100980002065787465726E616C20696E7465727230
:100990007570742030292E2E2E00456E61626C69B0
:1009A0006E6720444D502E2E2E004649464F206F34
:1009B000766572666C6F7721000000000800020106
:1009C0000000030407000000000000000000000019
:1009D00000250028002B0000000000240027002A2A
:1009E00000040404040404040402020202020203D8
:1009F00003030303030102040810204080010204E2
:100A000008102001020408102000111711241FBE35
:100A1000CFEFD8E0DEBFCDBF11E0A0E0B1E0E2ED66
:100A2000FAE302C005900D92A833B107D9F723E08D
:100A3000A8E3B1E001C01D92AD35B207E1F715E0C2
:100A4000C6E0D5E004C02197FE010E94091BC53015
:100A5000D107C9F70E94060E0C94671D0C94000084
:100A6000FC01538D448D252F30E0842F90E0821BB4
:100A7000930B541710F0CF96089501970895FC0139
:100A8000918D828D981761F0828DDF01A80FB11DC5
:100A90005D968C91928D9F5F9F73928F90E00895E9
:100AA0008FEF9FEF0895FC01918D828D981731F0A3
:100AB000828DE80FF11D858D90E008958FEF9FEFF7
:100AC0000895FC01918D228D892F90E0805C9F4FCD
:100AD000821B91098F73992708958FE692E00E94F7
:100AE000610521E0892B09F420E0822F0895FC01A3
:100AF000848DDF01A80FB11DA35ABF4F2C91848DA7
:100B000090E001968F739927848FA689B7892C93DB
:100B1000A089B1898C9180648C93938D848D981376
:100B200006C00288F389E02D80818F7D808308953F
:100B3000EF92FF920F931F93CF93DF93EC0181E02D
:100B4000888F9B8D8C8D981305C0E889F9898081E9
:100B500085FD24C0F62E0B8D10E00F5F1F4F0F7325
:100B60001127E02E8C8DE8120CC00FB607FCFACFCF
:100B7000E889F989808185FFF5CFCE010E9477054C
:100B8000F1CF8B8DFE01E80FF11DE35AFF4FF0828C
:100B90000B8FEA89FB898081806207C0EE89FF891B
:100BA0006083E889F98980818064808381E090E0B6
:100BB000DF91CF911F910F91FF90EF900895CF9308
:100BC000DF93EC01888D8823C9F0EA89FB89808155
:100BD00085FD05C0A889B9898C9186FD0FC00FB627
:100BE00007FCF5CF808185FFF2CFA889B9898C9168
:100BF00085FFEDCFCE010E947705E7CFDF91CF9142
:100C0000089580E090E0892B29F00E946D05811104
:100C10000C940000089508958091380190E020918F
:100C20003901821B9109089585ED8093BC00809164
:100C3000BC0084FDFCCF10924A0208954091D60179
:100C4000262F30E0240F311D21323105DCF42091B4
:100C50004A022430C9F4FC0180E090E0861758F481
:100C60003091D6012191DC01AC54BE4FA30FB11DD0
:100C70002C930196F3CF8091D601680F6093D60133
:100C800080E0089581E0089582E008950895E0915C
:100C9000390180913801E81730F4F0E0E550FE4F5B
:100CA000808190E008958FEF9FEF08959091390132
:100CB00080913801981750F4E92FF0E0E550FE4F8D
:100CC000208130E09F5F9093390102C02FEF3FEF0A
:100CD000C9010895CF92DF92EF92FF920F931F9375
:100CE000CF93DF937C01262F972F8A0180914B02AF
:100CF000882391F0C62FD72F6E01C40ED51ECC15B8
:100D0000DD0571F06991D701ED91FC910190F081C1
:100D1000E02DC7010995F3CF642F822F0E941E0694
:100D2000C801DF91CF911F910F91FF90EF90DF905D
:100D3000CF900895CF93DF931F92CDB7DEB769832D
:100D400020914B022223D1F020916E02203240F0FC
:100D500021E030E0FC013383228380E090E015C085
:100D600080914C02E82FF0E0E35BFD4F9981908386
:100D70008F5F80934C0280936E0205C061E0CE01CC
:100D800001960E941E0681E090E00F90DF91CF91C6
:100D90000895089580E090E0089581E080933A01FD
:100DA00008950E94151D1F920F920FB60F921124E5
:100DB0002F933F934F935F936F937F938F939F9363
:100DC000AF93BF93EF93FF938FE692E00E94770576
:100DD000FF91EF91BF91AF919F918F917F916F9113
:100DE0005F914F913F912F910F900FBE0F901F90E9
:100DF00018951F920F920FB60F9211242F938F9375
:100E00009F93EF93FF93E0917F02F09180028081A6
:100E1000E0918502F091860282FD12C0908180915E
:100E200088028F5F8F7320918902821751F0E091C1
:100E30008802F0E0E159FD4F958F8093880201C050
:100E40008081FF91EF919F918F912F910F900FBE15
:100E50000F901F90189590E0FC01E754F64F3491E5
:100E6000FC01EB50F64F2491FC01EF51F64FE49159
:100E7000EE2309F43BC0332339F1333091F038F4D9
:100E80003130A9F0323001F584B58F7D12C0373092
:100E900091F03830A1F03430B9F4809180008F7D2A
:100EA00003C0809180008F77809380000DC084B54F
:100EB0008F7784BD09C08091B0008F7703C0809187
:100EC000B0008F7D8093B000F0E0EE0FFF1FE35382
:100ED000F64FA591B4918FB7F894EC91611103C0CE
:100EE00020952E2301C02E2B2C938FBF08953FB742
:100EF000F8948091200290912102A0912202B09159
:100F0000230226B5A89B05C02F3F19F00196A11D0D
:100F1000B11D3FBFBA2FA92F982F8827820F911D8F
:100F2000A11DB11DBC01CD0142E0660F771F881FD6
:100F3000991F4A95D1F708958F929F92AF92BF92D1
:100F4000CF92DF92EF92FF926B017C010E947707B4
:100F50004B015C01C114D104E104F104F1F00E94E1
:100F60007707DC01CB0188199909AA09BB09883EDA
:100F70009340A105B10570F321E0C21AD108E10840
:100F8000F10888EE880E83E0981EA11CB11CC114E4
:100F9000D104E104F10419F7DDCFFF90EF90DF9069
:100FA000CF90BF90AF909F908F9008951F920F9217
:100FB0000FB60F9211242F933F938F939F93AF936C
:100FC000BF9380911C0290911D02A0911E02B091CE
:100FD0001F0230911B0223E0230F2D3720F40196CE
:100FE000A11DB11D05C026E8230F0296A11DB11D4C
:100FF00020931B0280931C0290931D02A0931E025B
:10100000B0931F028091200290912102A0912202B0
:10101000B09123020196A11DB11D809320029093EF
:101020002102A0932202B0932302BF91AF919F911E
:101030008F913F912F910F900FBE0F901F90189599
:101040001F920F920FB60F9211242F933F934F933D
:101050005F936F937F938F939F93AF93BF93EF9320
:10106000FF93E0910201F09103010995FF91EF9147
:10107000BF91AF919F918F917F916F915F914F91B0
:101080003F912F910F900FBE0F901F9018951F92B8
:101090000F920FB60F9211242F933F934F935F93AC
:1010A0006F937F938F939F93AF93BF93EF93FF9330
:1010B000E0910001F09101010995FF91EF91BF913D
:1010C000AF919F918F917F916F915F914F913F91E0
:1010D0002F910F900FBE0F901F901895EF92FF92D7
:1010E0000F931F93CF93DF9300D0CDB7DEB7142FAC
:1010F00091E090934B0280936D0210924C021092FB
:101100006E028CE093E029833A830E949A0629813B
:10111000022FE22E3A81F32E8E2D801B811740F490
:10112000F70161917F018CE093E00E949A06F4CF71
:101130000E94B00B91E0811190E0892F0F900F90E9
:10114000DF91CF911F910F91FF90EF900895CF9372
:10115000DF931F92CDB7DEB749839E012F5F3F4FCC
:1011600041E00E946E080F90DF91CF9108952F9279
:101170003F924F925F926F927F928F929F92AF9227
:10118000BF92CF92DF92EF92FF920F931F93CF9374
:10119000DF93CDB7DEB727970FB6F894DEBF0FBE4B
:1011A000CDBF8F83962E742F59018FB7F894C090BE
:1011B0001C02D0901D02E0901E02F0901F028FBF13
:1011C0005F81550F5B83812C312C2224239450E0C6
:1011D0005D834C832801612C712C871608F0A4C014
:1011E00020924B025F8150936D0210924C0210923C
:1011F0006E02692D8CE093E07E830E949A060E9425
:10120000B00B20924B025F8150936D0210924C0202
:1012100010926E027E8180914A028111FCCF2C8156
:101220003D81281931092132310514F020E230E0E6
:10123000213208F020E220924A02209249028FEFE8
:101240008093480210924702820F809346022092B8
:101250002502809125024B81842B80932502809169
:101260002402813071F4109224028091250280932F
:10127000BB008091BC0083FDF8CF55EC5093BC00BF
:1012800003C085EE8093BC0080914A028130E1F377
:1012900080914702821710F420914702A6E2B2E043
:1012A000EBEFF1E08E2F4BEF51E0841B821718F427
:1012B0008D918193F7CF109239012093380190914D
:1012C000380180913901981749F10115110591F400
:1012D000A501430D511D37FC5A955A8349838CE073
:1012E00093E07E830E945606E981FA8180833394DD
:1012F0007E81E5CF2FB7F89480911C0290911D025A
:10130000A0911E02B0911F022FBF8C199D09AE093A
:10131000BF0984159505A605B705D0F2872F713250
:1013200008F080E2880E59CF0115110509F12FB799
:10133000F89480911C0290911D02A0911E02B09120
:101340001F022FBF8C199D09AE09BF0920E030E0B4
:1013500080179107A207B30758F0272F30E0832D9D
:10136000032C000C990B8217930714F433243A943E
:10137000832D27960FB6F894DEBF0FBECDBFDF9149
:10138000CF911F910F91FF90EF90DF90CF90BF9082
:10139000AF909F908F907F906F905F904F903F9015
:1013A0002F900895BF92CF92DF92EF92FF920F930A
:1013B0001F93CF93DF931F92CDB7DEB7F82EE62EA3
:1013C000C42EB22ED02E08EE13E09E012F5F3F4FA9
:1013D00041E00E94B708882321F1EC2DF0E0EB19E1
:1013E000F109319621E030E002C0220F331FBA9498
:1013F000E2F7215031090E2E01C0220F0A94EAF7BC
:101400008D2D01C0880FEA95EAF7422F409599810A
:1014100049232823422B49836E2D8F2D0E94A70834
:1014200001C080E00F90DF91CF911F910F91FF904D
:10143000EF90DF90CF90BF900895CF92DF92EF9220
:10144000FF920F931F93CF93DF931F92CDB7DEB719
:10145000F82EE62ED42EC22E08EE13E09E012F5F4A
:101460003F4F41E00E94B7089981CC2041F041E014
:1014700050E001C0440FDA94EAF7492B09C021E09B
:1014800030E0A90101C0440FDA94EAF740954923FE
:1014900049836E2D8F2D0E94A7080F90DF91CF9169
:1014A0001F910F91FF90EF90DF90CF9008951F92C2
:1014B0000F920FB60F9211242F933F934F935F9388
:1014C0006F937F938F939F93AF93BF93EF93FF930C
:1014D0008091B900887F803609F49CC068F5883215
:1014E00009F45BC090F4803109F454C038F48823C7
:1014F00009F4F6C0883009F44DC0F6C0883109F40B
:101500004CC0803209F45DC0EFC0803409F468C07B
:1015100048F4803309F455C0883309F0E5C080935E
:101520004802D8C0803509F44FC0883509F45DC041
:10153000883409F0D9C0D6C0883909F4C7C0A8F4E6
:10154000883709F467C038F4883609F463C08037F7
:1015500009F460C0C9C0883809F4B8C0803909F4FA
:101560005FC0803809F0C0C05BC0803B09F486C012
:1015700038F4803A09F466C0883A09F47FC0B4C0F0
:10158000803C09F4A7C0883C09F4A4C0883B09F456
:101590008AC0AAC08091250210C090914702809114
:1015A0004602981770F5E091470281E08E0F809314
:1015B0004702F0E0EA5DFD4F80818093BB0085EC3F
:1015C00086C0809348028EC0E091470281E08E0F72
:1015D000809347028091BB00F0E0EA5DFD4F80837D
:1015E00090914702809146026EC0E091470281E0EF
:1015F0008E0F809347028091BB00F0E0EA5DFD4FC3
:1016000080838091490281116DC081E08093240222
:1016100084EA61C083E080934A021092FA01CFCF3E
:101620008091FA01803208F051C0E091FA0181E026
:101630008E0F8093FA018091BB00F0E0E652FE4FDE
:101640008083BDCF85EC8093BC0010924A028091CC
:10165000FA01803230F4E091FA01F0E0E652FE4FF8
:1016600010826091FA0170E0E091D801F091D90107
:101670008AED91E009951092FA0136C084E08093DA
:101680004A021092D7011092D601E091D401F09154
:10169000D50109958091D601811105C081E0809323
:1016A000D6011092B401E091D70181E08E0F8093B2
:1016B000D701F0E0EC54FE4F80818093BB00909105
:1016C000D7018091D601981708F479CF85E88093E7
:1016D000BC000AC085EC8093BC0010924A0204C092
:1016E000109248020E941406FF91EF91BF91AF91B2
:1016F0009F918F917F916F915F914F913F912F912A
:101700000F900FBE0F901F901895CF92DF92EF921F
:10171000FF920F931F93CF93DF936C017A018B019C
:10172000C0E0D0E0CE15DF0589F0D8016D918D01C4
:10173000D601ED91FC910190F081E02DC601099553
:10174000892B11F47E0102C02196ECCFC701DF91F5
:10175000CF911F910F91FF90EF90DF90CF90089560
:1017600020916E0290916D02213208F04AC0809162
:101770004A028111FCCF32E030934A0231E03093CB
:1017800049023FEF309348021092470220934602ED
:10179000ADE4B2E046E252E0FA013E2F341B3217CC
:1017A00018F43D913193F9CF109225022091250232
:1017B000990F922B9093250290912402913061F41D
:1017C00010922402909125029093BB009091BC004E
:1017D00093FDF8CF95EC01C095EE9093BC009091ED
:1017E0004A029230E1F3909148029F3F79F0809154
:1017F0004802803241F080914802803331F084E029
:1018000005C081E003C082E001C083E010924C0279
:1018100010926E0210924B0208950F931F93CF9374
:10182000DF93C4E3D3E008EE13E025E333E041E0C7
:101830006AE388810E94B7088981DF91CF911F9167
:101840000F91089521E042E06AE6809134030C9400
:101850001D0A482F6EE6809134030C94A7082F923E
:101860003F924F925F926F927F928F929F92AF9230
:10187000BF92CF92DF92EF92FF920F931F93CF937D
:10188000DF933C015B01342ED22F202E4F716DE689
:10189000809134030E94A7088D2F0E94290C80E1BB
:1018A00090E00E941E1B6C01002339F080E190E063
:1018B0000E941E1BC82F492E02C0C0E0412CE12C03
:1018C000F12CEA14FB0408F06EC0C7014096A8167C
:1018D000B90618F45A2C5E1802C080E1582E852DE6
:1018E00090E020E031E02D1B31092817390714F46E
:1018F0005D2E5194F301EE0DFF1D222059F09C2F17
:10190000AC2FB42D8A2F891B851530F484918D93CB
:101910003196F8CFCE2F4F2E2C2F342D452D6FE63C
:10192000809134030E946E08852C912CC114D1043F
:1019300029F1432D4F716DE6809134030E94A70871
:101940008D2F0E94290C08EE13E09601452D6FE6BD
:10195000809134030E94B708A401B6018C2F942D06
:101960000E941A1D892B51F0C6010E94B31B222030
:1019700021F18C2F942D0E94B31B1FC0E80CF91C81
:10198000D50DEA14FB0408F09CCFD11101C03394AB
:10199000432D4F716DE6809134030E94A7088D2F6F
:1019A0000E94290C8ECFC6010E94B31B222039F061
:1019B0008C2F942D0E94B31B02C080E001C081E0F7
:1019C000DF91CF911F910F91FF90EF90DF90CF901B
:1019D000BF90AF909F908F907F906F905F904F904F
:1019E0003F902F9008950F931F93662351F0462F39
:1019F0009C0108EE13E064E7809134030E94B7086D
:101A000002C0FC0110821F910F9108950F931F9344
:101A1000CF93DF93C4E3D3E008EE13E025E333E094
:101A200042E062E788810E94B708898190E0982FA0
:101A300088272A81822BDF91CF911F910F910895E2
:101A4000EF92FF920F931F93CF93DF931F92CDB727
:101A5000DEB77A0189019E012F5F3F4F41E00E946E
:101A6000B708882339F029812E7730E035952795FE
:101A7000F70120830F90DF91CF911F910F91FF907D
:101A8000EF90089590E0FC01EB50F64F2491FC019B
:101A9000EF51F64F8491882399F090E0880F991FB9
:101AA000FC01E952F64FA591B491FC01E353F64FC6
:101AB000859194918FB7F894EC91E22BEC938FBFC2
:101AC0000895009769F0FC0101900020E9F7319733
:101AD000AF01481B590BBC018FE692E00C94850BBB
:101AE00080E090E008950F931F93CF93DF938C01D4
:101AF000C0E0D0E0F801EC0FFD1F6491662371F0A7
:101B0000E0916F02F09170020190F081E02D8FE67C
:101B100092E00995892B11F02196ECCFCE01DF914F
:101B2000CF911F910F910895CF93DF930E94730D72
:101B3000EC0184E391E00E94610D8C0F9D1FDF9109
:101B4000CF9108958F929F92AF92BF920F931F9360
:101B5000CF93DF93CDB7DEB7A1970FB6F894DEBF72
:101B60000FBECDBF19A2423008F44AE08E010F5DCE
:101B70001F4F842E912CA12CB12CA50194010E9401
:101B8000AD1AE62FB901CA0101501109EA3014F467
:101B9000E05D01C0E95CD801EC93232B242B252BBD
:101BA00061F7C8010E94610DA1960FB6F894DEBFDF
:101BB0000FBECDBFDF91CF911F910F91BF90AF901E
:101BC0009F908F900895CF93DF93EA0191E09093D7
:101BD0004B0280936D0210924C0210926E028CE0C8
:101BE00093E00E949A0669818CE093E00E949A0635
:101BF00068818CE093E00E949A060E94B00B91E00D
:101C0000811190E0892FDF91CF910895CF93DF93D9
:101C1000CDB7DEB7CE5AD1090FB6F894DEBF0FBEEE
:101C2000CDBF789484B5826084BD84B5816084BD65
:101C300085B5826085BD85B5816085BD80916E006A
:101C4000816080936E00109281008091810082609B
:101C500080938100809181008160809381008091D8
:101C600080008160809380008091B10084608093C7
:101C7000B1008091B00081608093B00080917A00C3
:101C8000846080937A0080917A00826080937A00E9
:101C900080917A00816080937A0080917A008068D8
:101CA00080937A001092C10010923901109238018D
:101CB00010924C0210926E0210924A0281E08093C0
:101CC00049021092240261E082E10E942B0761E048
:101CD00083E10E942B078091B9008E7F8093B90029
:101CE0008091B9008D7F8093B90088E48093B8001B
:101CF00085E48093BC0088E18093B800E0917F0286
:101D0000F091800282E08083E0917B02F0917C027E
:101D10001082E0917D02F0917E0280E1808310923A
:101D20008702E0918302F091840286E08083E09153
:101D30008102F0918202808180618083E091810242
:101D4000F0918202808188608083E0918102F0912D
:101D50008202808180688083E0918102F09182021A
:101D600080818F7D808301E023E042E06BE68091FB
:101D700034030E94D20900E022E044E06BE180914C
:101D800034030E94D20922E044E06CE180913403E4
:101D90000E94D20920E046E06BE6809134030E9465
:101DA0001D0A21E047E06BE6809134030E941D0A82
:101DB0006EE170E080E090E00E949C0720E046E049
:101DC0006BE6809134030E941D0A40E76DE6809126
:101DD00034030E94A70886E00E94290C40E06DE6CB
:101DE000809134030E94A70828EE33E045E353E0D6
:101DF00060E0809134030E94200D8090350328EE2E
:101E000033E045E353E061E0809134030E94200D0C
:101E10009090350328EE33E045E353E062E0809193
:101E200034030E94200DA09035034FE765E28091B6
:101E300034030E94A70820E045E06AE6809134035D
:101E40000E941D0A48E665E2809134030E94A708BB
:101E500021E041E06AE6809134030E941D0A64E1BA
:101E600070E080E090E00E949C0701E020E040E00C
:101E700069E877E085E891E00E942F0C882309F457
:101E8000CDC288E090E00E941E1BB82E192FE12CD5
:101E9000F12CF701EB53FF4F4491F701EA53FF4F49
:101EA0002491670153E0C50ED11CF701E953FF4FA0
:101EB000E491EE23D1F1EE2EF12CE330D8F0B7010E
:101EC0008B2D912FC255DF4F2883CE5AD040C3555A
:101ED000DF4F4883CD5AD0400E944B1CB82E192F9B
:101EE000C355DF4F4881CD5AD040C255DF4F2881BE
:101EF000CE5AD040AB2DB12F80E090E08E159F05DB
:101F000048F4F601E80FF91FEB53FF4FE491ED930E
:101F10000196F4CF00E0B7018B2D912F0E942F0C7A
:101F2000EC0CFD1C811117C010C084E0E80EF11C00
:101F3000F601EB53FF4FE491E13039F442E368E3FB
:101F4000809134030E94A70806C08B2D912F0E9418
:101F5000B31B12E064C290ECE916F10408F499CFC7
:101F60008B2D912F0E94B31B03E023E042E06BE630
:101F7000809134030E94D20942E168E380913403E6
:101F80000E94A70844E069E1809134030E94A708F9
:101F900001E023E045E06AE1809134030E94D20928
:101FA00003E023E042E06AE1809134030E94D20919
:101FB00022E044E06BE1809134030E94D20943E0C7
:101FC00060E7809134030E94A70840E061E78091B8
:101FD00034030E94A70820E040E060E080913403D1
:101FE0000E941D0A082D26E046E060E0809134033F
:101FF0000E94D209092D26E046E061E08091340379
:102000000E94D2090A2D26E046E062E08091340366
:102010000E94D209E12CF12CF701EA56FF4FE4911E
:10202000A1E8B0E0AC0FBD1FAE0DB11DEC9381E097
:102030008E0DAFEFEA1AFA0AB3E0BE1568F7CD5776
:10204000DF4F6881C358D04070E09B012E5F3F4F47
:1020500090E02817390704F700E0CE57DF4F2881BA
:10206000C258D040CF57DF4F4881C158D04081E897
:1020700090E08C0F9D1F03960E942F0C80E0F701CB
:10208000EA56FF4FE491A1E8B0E0AC0FBD1FA80FE6
:10209000B11DEC938F5F2FEFE21AF20A843078F3D0
:1020A000CD57DF4F6881C358D04070E0AB014E5F21
:1020B0005F4F282F30E0421753070CF700E0CE5750
:1020C000DF4F2881C258D040CF57DF4F4881C158D9
:1020D000D04081E890E08C0F9D1F03960E942F0C4A
:1020E0000E94220C0E94060D682FCE0101960E94CC
:1020F000F30C42E06FE1809134030E94A7084CE9A1
:1021000061E2809134030E94A70840E560E280917B
:1021100034030E94A70840E062E2809134030E94E9
:10212000A7080E94220C21E046E06AE68091340371
:102130000E941D0A21E047E06AE6809134030E9474
:102140001D0A21E043E06AE6809134030E941D0AE3
:1021500080E0F701EA56FF4FE491A1E8B0E0AC0F50
:10216000BD1FA80FB11DEC938F5F4FEFE41AF40A67
:10217000843078F3CD57DF4F6881C358D04070E08A
:10218000AB014E5F5F4F282F30E0421753070CF72B
:1021900000E0CE57DF4F2881C258D040CF57DF4FE5
:1021A0004881C158D04081E890E08C0F9D1F039674
:1021B0000E942F0C80E0F701EA56FF4FE491A1E85E
:1021C000B0E0AC0FBD1FA80FB11DEC938F5F5FEFA8
:1021D000E51AF50A843078F3CD57DF4F6881C3588C
:1021E000D04070E0AB014E5F5F4F282F30E04217C8
:1021F00053070CF700E0CE57DF4F2881C258D0407C
:10220000CF57DF4F4881C158D04081E890E08C0F14
:102210009D1F03960E942F0C80E0F701EA56FF4FA6
:10222000E491A1E8B0E0AC0FBD1FA80FB11DEC9385
:102230008F5F9FEFE91AF90A843078F3CD57DF4FAB
:102240006881C358D04070E0AB014E5F5F4F282FCC
:1022500030E0421753070CF700E0CE57DF4F2881DC
:10226000C258D040CF57DF4F4881C158D04081E895
:1022700090E08C0F9D1F03960E942F0C0E94060D6C
:1022800083309105D8F3682FCE0101960E94F30C9C
:1022900080E0F701EA56FF4FE491A1E8B0E0AC0F0F
:1022A000BD1FA80FB11DEC938F5FAFEFEA1AFA0ABA
:1022B000843078F3CD57DF4F3880C358D040832C1B
:1022C000912CA4014E5F5F4F282F30E04217530737
:1022D00004F7CE57DF4FB880C258D040CF57DF4FFA
:1022E0002880C158D040422D4F716DE68091340353
:1022F0000E94A7088B2D0E94290CC12CD12C612C87
:102300007724739471E8472E512C4C0E5D1EB3E078
:102310004B0E511CC814D90498F5C6014096881676
:10232000990618F4A32CAC1802C050E1A52E8A2DF2
:1023300090E093012B1931092817390714F4AB2CBD
:10234000A19492012C0D3D1D08EE13E04A2D6FE67D
:10235000809134030E94B708CA0CD11CBA0CC8146F
:10236000D904C0F6B11001C02394422D4F716DE61F
:10237000809134030E94A7088B2D0E94290CCACF9C
:102380000E94060D83309105D8F3682FCE01019687
:102390000E94F30CF701EA56FF4F80E09491A1E808
:1023A000B0E0AC0FBD1FA80FB11D9C938F5F8430B0
:1023B00010F43196F3CFCD57DF4F6881C358D0402A
:1023C00070E0AB014E5F5F4F282F30E0421753079C
:1023D00084F700E0CE57DF4F2881C258D040CF5756
:1023E000DF4F4881C158D04081E890E08C0F9D1F9D
:1023F00003960E942F0C20E047E06AE680913403A8
:102400000E941D0A8AE290E090933703809336037E
:102410000E94220C0E940D0C10E001C011E01093EC
:102420003B01809134032CED30E0CD56DF4F3983F2
:102430002883C359D040AE014D565F4F63E10E94DF
:10244000E30D809134032CE430E0CF56DF4F398325
:102450002883C159D040AE014F565F4F65E10E94BD
:10246000E30D809134032BEA3FEFCF57DF4F3983E1
:102470002883C158D040AE014F575F4F67E10E949B
:10248000E30D809134032CEF36E03A832983AE01CB
:102490004F5F5F4F6AE00E94E30D11112FC08AE980
:1024A00099E00E94940D21E047E06AE680913403B0
:1024B0000E941D0A8BE599E00E94940D8DEC96E038
:1024C0009093010180930001809169008360809363
:1024D0006900E89A0E940D0C8093960181E399E0CF
:1024E0000E94940D81E08093B30180913603909116
:1024F0003703909398018093970110C080E199E091
:102500000E94730D60913B0170E080E090E04AE032
:102510000E94A20D8EE099E00E94940D83E00E943B
:10252000420D60E083E00E942B0784E00E94420D90
:1025300061E084E00E942B0785E00E94420D60E08C
:1025400085E00E942B0786E00E94420D61E086E054
:102550000E942B074CE2242E3324339404ED1EEF0B
:102560008091B301882341F180913A0181110CC01F
:102570002091990130919A01809197019091980151
:102580002817390708F4F3C210923A010E940D0C83
:10259000F82E809396010E94060D90939A018093E5
:1025A0009901F4FC03C08115944049F40E94220C67
:1025B0008AEA99E00E94940D0E940106D1CFF1FEB3
:1025C000FBCFE0909901F0909A01C0909701D090D4
:1025D0009801EC14FD0438F40E94060D90939A01C2
:1025E00080939901EECF6C2D86E591E00E94F30C6B
:1025F000EC18FD08F0929A01E0929901A0905A011E
:10260000B12CBA2CAA2480915B01A82AE0905E012B
:10261000F12CFE2CEE2480915F01E82AC09062012B
:10262000D12CDC2CCC2480916301C82A6091560106
:1026300070E0762F662780915701682B072E000CDB
:10264000880B990B0E94121920E030E040E858E313
:102650000E94CD192B013C01609324037093250344
:102660008093260390932703B501BB0C880B990B2D
:102670000E94121920E030E040E858E30E94CD1992
:102680004B015C01609328037093290380932A0314
:1026900090932B03B701FF0C880B990B0E94121922
:1026A00020E030E040E858E30E94CD19CB56DF4FE0
:1026B000688379838A839B83C559D04060932C03B8
:1026C00070932D0380932E0390932F03B601DD0C9E
:1026D000880B990B0E94121920E030E040E858E383
:1026E0000E94CD19C756DF4F688379838A839B8305
:1026F000C959D04060933003709331038093320303
:10270000909333039B01AC01C501B4010E94CD1924
:102710006B017C01CB56DF4F288139814A815B8177
:10272000C559D040C301B2010E94CD199B01AC0133
:10273000C701B6010E9489179B01AC010E948A174C
:10274000C356DF4F688379838A839B83CD59D040FA
:10275000609318037093190380931A0390931B03DB
:10276000A5019401C301B2010E94CD196B017C0146
:10277000C756DF4F288139814A815B81C959D040D2
:10278000CB56DF4F688179818A819B81C559D040C2
:102790000E94CD199B01AC01C701B6010E948A17A6
:1027A0009B01AC010E948A17CF55DF4F6883798364
:1027B0008A839B83C15AD04060931C0370931D038E
:1027C00080931E0390931F03A3019201C301B201E2
:1027D0000E94CD196B017C01A5019401C501B401D2
:1027E0000E94CD199B01AC01C701B6010E94891757
:1027F0006B017C01CB56DF4F288139814A815B8197
:10280000C559D040CA01B9010E94CD199B01AC0144
:10281000C701B6010E9489176B017C01C756DF4FC3
:10282000288139814A815B81C959D040CA01B901E7
:102830000E94CD199B01AC01C701B6010E948A1705
:102840006B017C016093200370932103809322032A
:1028500090932303A3019201C301B2010E948A173E
:10286000CB55DF4F688379838A839B83C55AD040D9
:10287000A5019401C501B4010E948A17C755DF4F15
:10288000688379838A839B83C95AD040A3019201CC
:10289000CB55DF4F688179818A819B81C55AD040B1
:1028A0000E94CD192B013C01A5019401C755DF4FB2
:1028B000688179818A819B81C95AD0400E94CD1953
:1028C0009B01AC01C301B2010E948A1720E030E0F5
:1028D00040E85FE30E9489172B013C01CB56DF4F94
:1028E000288139814A815B81C559D040C755DF4F66
:1028F000688179818A819B81C95AD0400E94CD1913
:102900004B015C01C756DF4F288139814A815B81C9
:10291000C959D040CB55DF4F688179818A819B812D
:10292000C55AD0400E94CD199B01AC01C501B4012C
:102930000E948917A30192010E94091860934A011D
:1029400070934B0180934C0190934D01A701960128
:10295000C701B6010E94CD196B017C01CF55DF4F35
:10296000288139814A815B81C15AD040CA01B901AD
:102970000E94CD19A70196010E948A170E94401A51
:102980009B01AC01C356DF4F688179818A819B81AD
:10299000CD59D0400E9468180E94391860934E01AA
:1029A00070934F018093500190935101C356DF4FB4
:1029B000288139814A815B81CD59D040CA01B90152
:1029C0000E94CD19A70196010E948A170E94401A01
:1029D0009B01AC01CF55DF4F688179818A819B8152
:1029E000C15AD0400E9468180E9439186093520161
:1029F00070935301809354019093550120E030E08F
:102A000044E353E40E94CD192BED3FE049E450E448
:102A10000E9468180E94DA186B017C0170934901CA
:102A2000609348012091460130914701260F371FDE
:102A300030934701209346018091440190914501D4
:102A4000A601481B590B5093430140934201D09279
:102A50004501C0924401A8EEB3E0AC9DC001AD9D1C
:102A6000900DBC9D900D112464E670E00E94991AAF
:102A7000FB017093410160934001C90164E670E07D
:102A80000E94991A70933F0160933E0110923D019C
:102A900010923C01E60FF71FF093B001E093AF01F5
:102AA000882799278E1B9F0B9093A8018093A701DD
:102AB000E43DFE4F64F41093B0010093AF01843DF8
:102AC0009E4F9CF41093A8010093A70103C0843D7E
:102AD0009E4FC4F38091AF019091B0018D3291402F
:102AE00024F03092B0012092AF018091A701909123
:102AF000A8018D32914024F03092A8012092A701C4
:102B0000BDE2CB0ED11C2BE5C216D10440F01092D1
:102B1000B0011092AF011092A8011092A701C090CD
:102B2000AF01D090B0010D2C000CEE08FF08F7FEAD
:102B300014C0E0916F02F09170020190F081E02DDD
:102B40006DE28FE692E0099566277727CB016C1935
:102B50007D098E099F094AE003C04AE0C701B6011A
:102B60000E94A20D84E391E00E94610D25CD0E9498
:102B700077076B017C018091060190910701019715
:102B800039F08091B1019091B201892B09F05FC0B9
:102B900010920701109206012091AF013091B0010F
:102BA0008091B1019091B201821793072CF40196A4
:102BB0009093B2018093B1018091B1019091B201E3
:102BC000281739072CF401979093B2018093B10133
:102BD000A090B101B090B201A114B104A1F15CF0D8
:102BE00041E050E05093AE014093AD0184E00E947B
:102BF000420D60E00AC08FEF9FEF9093AE0180938B
:102C0000AD0184E00E94420D61E084E00E942B0748
:102C1000D501B7FE03C0B195A195B10920E436E016
:102C20000E94EE1A2CE330E040E050E00E94CF1A00
:102C300060E472E48FE090E00E94CF1A3093AC0120
:102C40002093AB0104C01092AE011092AD0120910F
:102C50000401309105018091A9019091AA012130D0
:102C6000310519F0009709F05BC010920501109230
:102C700004012091A7013091A801821793072CF439
:102C800001969093AA018093A9018091A901909146
:102C9000AA01281739072CF401979093AA01809371
:102CA000A901A090A901B090AA01A114B104A1F1B9
:102CB0005CF0A1E0B0E0B093A601A093A50186E08E
:102CC0000E94420D60E00AC04FEF5FEF5093A601F3
:102CD0004093A50186E00E94420D61E086E00E94DB
:102CE0002B07D501B7FE03C0B195A195B10920E42A
:102CF00036E00E94EE1A2CE330E040E050E00E9403
:102D0000CF1A60E472E48FE090E00E94CF1A309313
:102D1000A4012093A30104C01092A6011092A50162
:102D200080919F019091A001A091A101B091A20179
:102D3000B701A601481B590B6A0B7B0B8091AB01B5
:102D40009091AC01A0E0B0E084179507A607B70703
:102D500000F5A090AD01B090AE01B7FE03C0B194F4
:102D6000A194B10851E0A516B10499F4C0929F0155
:102D7000D092A001E092A101F092A20183E00E9412
:102D8000420D61E083E00E942B07B0920701A09200
:102D9000060180919B0190919C01A0919D01B091B1
:102DA0009E01B701A601481B590B6A0B7B0B809152
:102DB000A3019091A401A0E0B0E084179507A607B5
:102DC000B70700F5A090A501B090A601B7FE03C01B
:102DD000B194A194B10881E0A816B10499F4C0920D
:102DE0009B01D0929C01E0929D01F0929E0185E0B2
:102DF0000E94420D61E085E00E942B07B092050120
:102E0000A092040183E00E94420D60E083E00E94F2
:102E10002B0785E00E94420D60E085E00E942B07B1
:102E2000A3CBEFE6F2E01382128288EE93E0A0E0FB
:102E3000B0E084839583A683B78324E131E03183B6
:102E4000208325EC30E03587248724EC30E0378779
:102E5000268720EC30E0318B208B21EC30E0338B67
:102E6000228B22EC30E0358B248B26EC30E0378B44
:102E7000268B118E128E138E148EECE0F3E01382EB
:102E8000128284839583A683B78386E291E091833F
:102E9000808388E680933403E4E2F3E080E090E00E
:102EA000A0E8BFE380839183A283B3831482158259
:102EB000168217821086118612861386148615864E
:102EC00016861786E3E5F3E01182108213821282E0
:102ED00015821482EDE4F3E01182108213821282D3
:102EE00015821482E7E4F3E01182108213821282C9
:102EF00015821482E8E1F3E01082118212821382BB
:102F00001482158216821782108611861286138605
:102F100008955058BB27AA270E94A1170C948B191B
:102F20000E947D1938F00E94841920F039F49F3FE7
:102F300019F426F40C9453190EF4E095E7FB0C9465
:102F40004D19E92F0E949C1958F3BA1762077307AD
:102F50008407950720F079F4A6F50C94BE190EF4B9
:102F6000E0950B2EBA2FA02D0B01B90190010C0199
:102F7000CA01A0011124FF27591B99F0593F50F4B1
:102F8000503E68F11A16F040A22F232F342F442709
:102F9000585FF3CF469537952795A795F040539501
:102FA000C9F77EF41F16BA0B620B730B840BBAF0D1
:102FB0009150A1F0FF0FBB1F661F771F881FC2F73C
:102FC0000EC0BA0F621F731F841F48F48795779550
:102FD0006795B795F7959E3F08F0B0CF9395880F0A
:102FE00008F09927EE0F9795879508950E947D190F
:102FF00060F080E891E009F49EEF0E94841928F0C7
:1030000040E851E071F45EEF0CC00C9453190C943D
:10301000BE19E92FE0780E949C1940F3092E052A79
:10302000B1F3261737074807590738F00E2E07F86F
:10303000E02569F0E025E0640AC0EF6307F800943A
:1030400007FADB01B9019D01DC01CA01AD01EF9373
:103050000E947F180E948B190E9439185F91552396
:1030600039F02BED3FE049E450FD49EC0C948A1710
:103070000895DF93DD27B92FBF7740E85FE3161689
:10308000170648075B0718F4D92F0E94C5199F93AC
:103090008F937F936F930E94801AE8E6F0E00E947E
:1030A00056190E948B192F913F914F915F910E9469
:1030B000E019DD2351F09058A2EA2AED3FE049ECF7
:1030C0005FE3D0785D270E94A117DF910C948B19E4
:1030D0000E947C180C948B190E94841958F00E944D
:1030E0007D1940F029F45F3F29F00C944D195111DE
:1030F0000C94BF190C9453190E949C1968F39923DE
:10310000B1F3552391F3951B550BBB27AA276217E3
:103110007307840738F09F5F5F4F220F331F441FF0
:10312000AA1FA9F335D00E2E3AF0E0E832D0915024
:103130005040E695001CCAF72BD0FE2F29D0660F11
:10314000771F881FBB1F261737074807AB07B0E854
:1031500009F0BB0B802DBF01FF2793585F4F3AF05A
:103160009E3F510578F00C944D190C94BF195F3FA8
:10317000E4F3983ED4F3869577956795B795F795E0
:103180009F5FC9F7880F911D9695879597F90895C8
:10319000E1E0660F771F881FBB1F62177307840764
:1031A000BA0720F0621B730B840BBA0BEE1F88F773
:1031B000E09508950E94E1186894B1110C94BF192C
:1031C00008950E94A41988F09F5798F0B92F992765
:1031D000B751B0F0E1F0660F771F881F991F1AF002
:1031E000BA95C9F714C0B13091F00E94BE19B1E090
:1031F00008950C94BE19672F782F8827B85F39F08F
:10320000B93FCCF3869577956795B395D9F73EF49A
:1032100090958095709561957F4F8F4F9F4F089542
:10322000E89409C097FB3EF4909580957095619560
:103230007F4F8F4F9F4F9923A9F0F92F96E9BB2716
:103240009395F695879577956795B795F111F8CF92
:10325000FAF4BB0F11F460FF1BC06F5F7F4F8F4FFD
:103260009F4F16C0882311F096E911C0772321F0F3
:103270009EE8872F762F05C0662371F096E8862F8B
:1032800070E060E02AF09A95660F771F881FDAF7E2
:10329000880F9695879597F9089597F99F6780E825
:1032A00070E060E008959FEF80EC0895DF93CF9386
:1032B0001F930F93FF92EF92DF927B018C01689432
:1032C00006C0DA2EEF010E94E019FE01E894A591F4
:1032D0002591359145915591A6F3EF010E94A117D3
:1032E000FE019701A801DA9469F7DF90EF90FF9053
:1032F0000F911F91CF91DF91089500240A94161623
:10330000170618060906089500240A9412161306D3
:10331000140605060895092E0394000C11F4882361
:1033200052F0BB0F40F4BF2B11F460FF04C06F5F7D
:103330007F4F8F4F9F4F089557FD9058440F551F53
:1033400059F05F3F71F04795880F97FB991F61F027
:103350009F3F79F087950895121613061406551F9E
:10336000F2CF4695F1DF08C0161617061806991F0A
:10337000F1CF86957105610508940895E894BB27FF
:1033800066277727CB0197F908959B01AC0160E090
:1033900070E080E89FE30C9468180E94E0190C9498
:1033A0008B190E947D1938F00E94841920F0952312
:1033B00011F00C944D190C94531911240C94BF194D
:1033C0000E949C1970F3959FC1F3950F50E0551F13
:1033D000629FF001729FBB27F00DB11D639FAA276A
:1033E000F00DB11DAA1F649F6627B00DA11D661FB9
:1033F000829F2227B00DA11D621F739FB00DA11DDA
:10340000621F839FA00D611D221F749F3327A00D93
:10341000611D231F849F600D211D822F762F6A2F2F
:1034200011249F5750409AF0F1F088234AF0EE0F94
:10343000FF1FBB1F661F771F881F91505040A9F7C1
:103440009E3F510580F00C944D190C94BF195F3FBD
:10345000E4F3983ED4F3869577956795B795F795FD
:10346000E7959F5FC1F7FE2B880F911D9695879575
:1034700097F9089519F416F40C9453190C94841ABE
:103480000E94A419B8F39923C9F3B6F39F57550BBB
:1034900087FF0E94921A0024A0E640EA900180581B
:1034A0005695979528F4805C660F771F881F20F04B
:1034B00026173707480730F4621B730B840B20294B
:1034C00031294A2BA69517940794202531254A27A0
:1034D00058F7660F771F881F20F026173707480711
:1034E00030F4620B730B840B200D311D411DA09530
:1034F00081F7B901842F9158880F96958795089583
:103500009B01AC010C94CD199F3F31F0915020F4F8
:10351000879577956795B795880F911D96958795AF
:1035200097F9089591505040660F771F881FD2F782
:10353000089597FB072E16F4009407D077FD09D065
:103540000E94F51A07FC05D03EF4909581959F4F97
:103550000895709561957F4F0895A1E21A2EAA1BD8
:10356000BB1BFD010DC0AA1FBB1FEE1FFF1FA21733
:10357000B307E407F50720F0A21BB30BE40BF50B30
:10358000661F771F881F991F1A9469F760957095B9
:10359000809590959B01AC01BD01CF010895052E4A
:1035A00097FB1EF400940E94E61A57FD07D00E9474
:1035B000AD1A07FC03D04EF40C94E61A50954095D2
:1035C000309521953F4F4F4F5F4F089590958095CF
:1035D000709561957F4F8F4F9F4F08950E940F1BED
:1035E000B7FF0895821B930B0895AA1BBB1B51E1E3
:1035F00007C0AA1FBB1FA617B70710F0A61BB70B63
:10360000881F991F5A95A9F780959095BC01CD0107
:103610000895EE0FFF1F0590F491E02D0994A29FED
:10362000B001B39FC001A39F700D811D1124911D96
:10363000B29F700D811D1124911D0895CF93DF93CA
:103640008230910510F482E090E0E0915B03F0910C
:103650005C0320E030E0C0E0D0E0309711F1408121
:10366000518148175907C0F04817590761F4828102
:103670009381209719F09B838A832BC090935C03DE
:1036800080935B0326C02115310519F042175307BB
:1036900018F49A01BE01DF01EF010280F381E02DF1
:1036A000DCCF2115310509F1281B390B24303105F8
:1036B00090F412968D919C9113976115710521F0EC
:1036C000FB019383828304C090935C0380935B032C
:1036D000FD01329644C0FD01E20FF31F81939193E7
:1036E000225031092D933C933AC0209159033091D7
:1036F0005A03232B41F420910A0130910B0130939E
:103700005A03209359032091080130910901211592
:10371000310541F42DB73EB740910C0150910D0198
:10372000241B350BE0915903F0915A03E217F3077C
:10373000A0F42E1B3F0B2817390778F0AC014E5F21
:103740005F4F2417350748F04E0F5F1F50935A0301
:10375000409359038193919302C0E0E0F0E0CF01E0
:10376000DF91CF9108950F931F93CF93DF9300972D
:1037700009F48CC0FC0132971382128200915B0322
:1037800010915C030115110581F420813181820FB4
:10379000931F2091590330915A032817390779F55F
:1037A000F0935A03E093590371C0D80140E050E010
:1037B000AE17BF0750F412962D913C911397AD01AF
:1037C0002115310509F1D901F3CF9D01DA013383C8
:1037D000228360817181860F971F8217930769F496
:1037E000EC0128813981260F371F2E5F3F4F31832F
:1037F00020838A819B8193838283452B29F4F093D4
:103800005C03E0935B0342C01396FC93EE93129724
:10381000ED01499159919E01240F351FE217F307DD
:1038200071F480819181840F951F029611969C936B
:103830008E938281938113969C938E931297E0E0EE
:10384000F0E0D80112968D919C911397009719F092
:10385000F8018C01F6CF8D919C9198012E5F3F4F1E
:10386000820F931F2091590330915A03281739076B
:1038700069F4309729F410925C0310925B0302C044
:103880001382128210935A0300935903DF91CF9150
:103890001F910F910895A0E0B0E0E1E5FCE10C94E8
:1038A000341DEC01009721F4CB010E941E1BB8C00F
:1038B000FC01E60FF71F9C0122503109E217F307C4
:1038C00008F4ACC0D9010D911C9111970617170788
:1038D000B0F00530110508F49FC0C80104978617A1
:1038E000970708F499C002501109061B170B0193A2
:1038F00011936D937C93CF010E94B31B8DC05B012C
:10390000A01AB10A4C01800E911EA0915B03B091E8
:103910005C0340E050E0E12CF12C109709F44AC020
:10392000A815B905D1F56D907C901197630182E0DF
:10393000C80ED11CCA14DB0480F1A3014A195B092B
:103940006A0182E0C80ED11C1296BC9012971396A1
:10395000AC91B5E0CB16D10440F0B282A383518381
:103960004083D9016D937C930AC00E5F1F4FC30142
:10397000800F911FF90191838083EB2DFA2FE114C1
:10398000F10431F0D7011396FC93EE93129744C0E3
:10399000F0935C03E0935B033FC08D919C91119782
:1039A0004817590708F4AC017D0112960D90BC919F
:1039B000A02DB3CF8091590390915A038815990592
:1039C000E1F446175707C8F4809108019091090166
:1039D000009741F48DB79EB740910C0150910D01B5
:1039E000841B950BE817F907C8F4F0935A03E0938A
:1039F0005903F901718360830FC0CB010E941E1B24
:103A00007C01009759F0A801BE010E94271DCE013C
:103A10000E94B31BC70104C0CE0102C080E090E049
:103A2000CDB7DEB7EEE00C94501D81E090E0F89445
:103A30000C94671DFB01DC0104C08D91019080197D
:103A400021F441505040C8F7881B990B0895FB01A1
:103A5000DC0102C001900D9241505040D8F708950A
:103A60002F923F924F925F926F927F928F929F928E
:103A7000AF92BF92CF92DF92EF92FF920F931F937C
:103A8000CF93DF93CDB7DEB7CA1BDB0B0FB6F8942D
:103A9000DEBF0FBECDBF09942A88398848885F846D
:103AA0006E847D848C849B84AA84B984C884DF80DE
:103AB000EE80FD800C811B81AA81B981CE0FD11DC2
:103AC0000FB6F894DEBF0FBECDBFED010895F89498
:023AD000FFCF26
:103AD2000B060B060100010000005D038000E803F5
:103AE200000000009805850B3005DF0561053F05E4
:103AF2005305000000009A066A06CA0646060C062E
:083B0200560647060D0A0000FB
:00000001FF
